{
  "contractName": "CrowdProposal",
  "abi": [
    {
      "inputs": [
        {
          "internalType": "address payable",
          "name": "author_",
          "type": "address"
        },
        {
          "internalType": "address[]",
          "name": "targets_",
          "type": "address[]"
        },
        {
          "internalType": "uint256[]",
          "name": "values_",
          "type": "uint256[]"
        },
        {
          "internalType": "string[]",
          "name": "signatures_",
          "type": "string[]"
        },
        {
          "internalType": "bytes[]",
          "name": "calldatas_",
          "type": "bytes[]"
        },
        {
          "internalType": "string",
          "name": "description_",
          "type": "string"
        },
        {
          "internalType": "address",
          "name": "mpoint_",
          "type": "address"
        },
        {
          "internalType": "address",
          "name": "governor_",
          "type": "address"
        }
      ],
      "stateMutability": "nonpayable",
      "type": "constructor"
    },
    {
      "anonymous": false,
      "inputs": [
        {
          "indexed": true,
          "internalType": "address",
          "name": "proposal",
          "type": "address"
        },
        {
          "indexed": true,
          "internalType": "address",
          "name": "author",
          "type": "address"
        },
        {
          "indexed": false,
          "internalType": "uint256",
          "name": "proposalId",
          "type": "uint256"
        }
      ],
      "name": "CrowdProposalProposed",
      "type": "event"
    },
    {
      "anonymous": false,
      "inputs": [
        {
          "indexed": true,
          "internalType": "address",
          "name": "proposal",
          "type": "address"
        },
        {
          "indexed": true,
          "internalType": "address",
          "name": "author",
          "type": "address"
        }
      ],
      "name": "CrowdProposalTerminated",
      "type": "event"
    },
    {
      "anonymous": false,
      "inputs": [
        {
          "indexed": true,
          "internalType": "address",
          "name": "proposal",
          "type": "address"
        },
        {
          "indexed": false,
          "internalType": "uint256",
          "name": "proposalId",
          "type": "uint256"
        }
      ],
      "name": "CrowdProposalVoted",
      "type": "event"
    },
    {
      "inputs": [],
      "name": "author",
      "outputs": [
        {
          "internalType": "address payable",
          "name": "",
          "type": "address"
        }
      ],
      "stateMutability": "view",
      "type": "function"
    },
    {
      "inputs": [
        {
          "internalType": "uint256",
          "name": "",
          "type": "uint256"
        }
      ],
      "name": "calldatas",
      "outputs": [
        {
          "internalType": "bytes",
          "name": "",
          "type": "bytes"
        }
      ],
      "stateMutability": "view",
      "type": "function"
    },
    {
      "inputs": [],
      "name": "description",
      "outputs": [
        {
          "internalType": "string",
          "name": "",
          "type": "string"
        }
      ],
      "stateMutability": "view",
      "type": "function"
    },
    {
      "inputs": [],
      "name": "govProposalId",
      "outputs": [
        {
          "internalType": "uint256",
          "name": "",
          "type": "uint256"
        }
      ],
      "stateMutability": "view",
      "type": "function"
    },
    {
      "inputs": [],
      "name": "governor",
      "outputs": [
        {
          "internalType": "address",
          "name": "",
          "type": "address"
        }
      ],
      "stateMutability": "view",
      "type": "function"
    },
    {
      "inputs": [],
      "name": "mpoint",
      "outputs": [
        {
          "internalType": "address",
          "name": "",
          "type": "address"
        }
      ],
      "stateMutability": "view",
      "type": "function"
    },
    {
      "inputs": [
        {
          "internalType": "uint256",
          "name": "",
          "type": "uint256"
        }
      ],
      "name": "signatures",
      "outputs": [
        {
          "internalType": "string",
          "name": "",
          "type": "string"
        }
      ],
      "stateMutability": "view",
      "type": "function"
    },
    {
      "inputs": [
        {
          "internalType": "uint256",
          "name": "",
          "type": "uint256"
        }
      ],
      "name": "targets",
      "outputs": [
        {
          "internalType": "address",
          "name": "",
          "type": "address"
        }
      ],
      "stateMutability": "view",
      "type": "function"
    },
    {
      "inputs": [],
      "name": "terminated",
      "outputs": [
        {
          "internalType": "bool",
          "name": "",
          "type": "bool"
        }
      ],
      "stateMutability": "view",
      "type": "function"
    },
    {
      "inputs": [
        {
          "internalType": "uint256",
          "name": "",
          "type": "uint256"
        }
      ],
      "name": "values",
      "outputs": [
        {
          "internalType": "uint256",
          "name": "",
          "type": "uint256"
        }
      ],
      "stateMutability": "view",
      "type": "function"
    },
    {
      "inputs": [],
      "name": "propose",
      "outputs": [
        {
          "internalType": "uint256",
          "name": "",
          "type": "uint256"
        }
      ],
      "stateMutability": "nonpayable",
      "type": "function"
    },
    {
      "inputs": [],
      "name": "terminate",
      "outputs": [],
      "stateMutability": "nonpayable",
      "type": "function"
    },
    {
      "inputs": [],
      "name": "vote",
      "outputs": [],
      "stateMutability": "nonpayable",
      "type": "function"
    }
  ],
  "bytecode": "0x60e06040523480156200001157600080fd5b50604051620014cb380380620014cb8339810160408190526200003491620005fa565b6001600160601b0319606089901b1660805286516200005b9060009060208a019062000148565b50855162000071906001906020890190620001b2565b50845162000087906002906020880190620001fe565b5083516200009d9060039060208701906200025e565b508251620000b3906004906020860190620002be565b506001600160601b0319606083811b821660a05282901b1660c0526006805460ff191690556040516317066a5760e21b81526001600160a01b03831690635c19a95c906200010690309060040162000711565b600060405180830381600087803b1580156200012157600080fd5b505af115801562000136573d6000803e3d6000fd5b50505050505050505050505062000782565b828054828255906000526020600020908101928215620001a0579160200282015b82811115620001a057825182546001600160a01b0319166001600160a01b0390911617825560209092019160019091019062000169565b50620001ae92915062000330565b5090565b828054828255906000526020600020908101928215620001f0579160200282015b82811115620001f0578251825591602001919060010190620001d3565b50620001ae9291506200035a565b82805482825590600052602060002090810192821562000250579160200282015b828111156200025057825180516200023f918491602090910190620002be565b50916020019190600101906200021f565b50620001ae92915062000377565b828054828255906000526020600020908101928215620002b0579160200282015b82811115620002b057825180516200029f918491602090910190620002be565b50916020019190600101906200027f565b50620001ae9291506200039f565b828054600181600116156101000203166002900490600052602060002090601f016020900481019282601f106200030157805160ff1916838001178555620001f0565b82800160010185558215620001f05791820182811115620001f0578251825591602001919060010190620001d3565b6200035791905b80821115620001ae5780546001600160a01b031916815560010162000337565b90565b6200035791905b80821115620001ae576000815560010162000361565b6200035791905b80821115620001ae576000620003958282620003c7565b506001016200037e565b6200035791905b80821115620001ae576000620003bd8282620003c7565b50600101620003a6565b50805460018160011615610100020316600290046000825580601f10620003ef57506200040f565b601f0160209004906000526020600020908101906200040f91906200035a565b50565b80516200041f816200076c565b92915050565b600082601f83011262000436578081fd5b81516200044d62000447826200074c565b62000725565b8181529150602080830190848101818402860182018710156200046f57600080fd5b60005b848110156200049b57815162000488816200076c565b8452928201929082019060010162000472565b505050505092915050565b600082601f830112620004b7578081fd5b8151620004c862000447826200074c565b818152915060208083019084810160005b848110156200049b57620004f3888484518a01016200056b565b84529282019290820190600101620004d9565b600082601f83011262000517578081fd5b81516200052862000447826200074c565b8181529150602080830190848101818402860182018710156200054a57600080fd5b60005b848110156200049b578151845292820192908201906001016200054d565b600082601f8301126200057c578081fd5b81516001600160401b0381111562000592578182fd5b6020620005a8601f8301601f1916820162000725565b92508183528481838601011115620005bf57600080fd5b60005b82811015620005df578481018201518482018301528101620005c2565b82811115620005f15760008284860101525b50505092915050565b600080600080600080600080610100898b03121562000617578384fd5b620006238a8a62000412565b60208a01519098506001600160401b038082111562000640578586fd5b6200064e8c838d0162000425565b985060408b015191508082111562000664578586fd5b620006728c838d0162000506565b975060608b015191508082111562000688578586fd5b620006968c838d01620004a6565b965060808b0151915080821115620006ac578586fd5b620006ba8c838d01620004a6565b955060a08b0151915080821115620006d0578485fd5b50620006df8b828c016200056b565b935050620006f18a60c08b0162000412565b9150620007028a60e08b0162000412565b90509295985092959890939650565b6001600160a01b0391909116815260200190565b6040518181016001600160401b03811182821017156200074457600080fd5b604052919050565b60006001600160401b0382111562000762578081fd5b5060209081020190565b6001600160a01b03811681146200040f57600080fd5b60805160601c60a05160601c60c05160601c610cf0620007db60003980610403528061048e52806106cc5250806101a9528061028a5250806101fd52806102b352806103b6528061063f52806107715250610cf06000f3fe608060405234801561001057600080fd5b50600436106100cf5760003560e01c80635e383d211161008c5780638be10194116100665780638be1019414610171578063a6c3e6b914610184578063be73f9ab1461018c578063c198f8ba1461019f576100cf565b80635e383d2114610141578063632a9a52146101545780637284e4161461015c576100cf565b806304af359f146100d45780630a39ce02146100f25780630c08bf88146101055780630c340a241461010f578063194307bf146101175780632b9bdc9e1461012c575b600080fd5b6100dc6101a7565b6040516100e991906109ea565b60405180910390f35b6100dc6101003660046107f5565b6101cb565b61010d6101f2565b005b6100dc610401565b61011f610425565b6040516100e99190610ac3565b61013461042e565b6040516100e99190610c95565b61013461014f3660046107f5565b610434565b61010d610452565b61016461053c565b6040516100e99190610ace565b61016461017f3660046107f5565b6105ca565b6100dc61063d565b61016461019a3660046107f5565b610661565b61013461066e565b7f000000000000000000000000000000000000000000000000000000000000000081565b600081815481106101d857fe5b6000918252602090912001546001600160a01b0316905081565b336001600160a01b037f000000000000000000000000000000000000000000000000000000000000000016146102435760405162461bcd60e51b815260040161023a90610b91565b60405180910390fd5b60065460ff16156102665760405162461bcd60e51b815260040161023a90610b34565b6006805460ff191660011790556040516370a0823160e01b81526001600160a01b037f0000000000000000000000000000000000000000000000000000000000000000169063a9059cbb907f00000000000000000000000000000000000000000000000000000000000000009083906370a08231906102e99030906004016109ea565b60206040518083038186803b15801561030157600080fd5b505afa158015610315573d6000803e3d6000fd5b505050506040513d601f19601f82011682018060405250810190610339919061080d565b6040518363ffffffff1660e01b81526004016103569291906109fe565b602060405180830381600087803b15801561037057600080fd5b505af1158015610384573d6000803e3d6000fd5b505050506040513d601f19601f820116820180604052508101906103a891906107ce565b506040516001600160a01b037f0000000000000000000000000000000000000000000000000000000000000000169030907f23f673aea90166e3e0364748cd5f153da65814d4d343e1c3e2f43d33c0c3b3f190600090a3565b7f000000000000000000000000000000000000000000000000000000000000000081565b60065460ff1681565b60055481565b6001818154811061044157fe5b600091825260209091200154905081565b6000600554116104745760405162461bcd60e51b815260040161023a90610be4565b6005546040516315373e3d60e01b81526001600160a01b037f000000000000000000000000000000000000000000000000000000000000000016916315373e3d916104c59190600190600401610c9e565b600060405180830381600087803b1580156104df57600080fd5b505af11580156104f3573d6000803e3d6000fd5b50505050306001600160a01b03167f402864f08818e224f9c5d5be7205cbe636a6239f96cc187e1445a414aa48c3f36005546040516105329190610c95565b60405180910390a2565b6004805460408051602060026001851615610100026000190190941693909304601f810184900484028201840190925281815292918301828280156105c25780601f10610597576101008083540402835291602001916105c2565b820191906000526020600020905b8154815290600101906020018083116105a557829003601f168201915b505050505081565b600281815481106105d757fe5b600091825260209182902001805460408051601f60026000196101006001871615020190941693909304928301859004850281018501909152818152935090918301828280156105c25780601f10610597576101008083540402835291602001916105c2565b7f000000000000000000000000000000000000000000000000000000000000000081565b600381815481106105d757fe5b60006005546000146106925760405162461bcd60e51b815260040161023a90610ae1565b60065460ff16156106b55760405162461bcd60e51b815260040161023a90610c41565b604051636d4ab48d60e11b81526001600160a01b037f0000000000000000000000000000000000000000000000000000000000000000169063da95691a9061070d906000906001906002906003906004908101610a17565b602060405180830381600087803b15801561072757600080fd5b505af115801561073b573d6000803e3d6000fd5b505050506040513d601f19601f8201168201806040525081019061075f919061080d565b60058190556040516001600160a01b037f0000000000000000000000000000000000000000000000000000000000000000169130917fdd852111d50cb1db94e7f2c0d71c2e82ec0638c8ed1a57a94b2241294261bf1d916107bf91610c95565b60405180910390a35060055490565b6000602082840312156107df578081fd5b815180151581146107ee578182fd5b9392505050565b600060208284031215610806578081fd5b5035919050565b60006020828403121561081e578081fd5b5051919050565b6001600160a01b03169052565b6000815480845260208085018081965082840281019150858552828520855b8581101561087a5782840389526108688483610967565b98850198935060019182019101610851565b5091979650505050505050565b60008282548085526020808601955080818302840101858552818520855b848110156108d257858303601f190189526108c08383610967565b988401989250600191820191016108a5565b5090979650505050505050565b6000815480845260208085019450838352808320835b83811015610911578154875295820195600191820191016108f5565b509495945050505050565b60008151808452815b8181101561094157602081850181015186830182015201610925565b818111156109525782602083870101525b50601f01601f19169290920160200192915050565b6000815460018082166000811461098557600181146109a3576109e1565b60028304607f16865260ff19831660208701526040860193506109e1565b600283048087526109b386610cae565b60005b828110156109d75781546020828b01015284820191506020810190506109b6565b8801602001955050505b50505092915050565b6001600160a01b0391909116815260200190565b6001600160a01b03929092168252602082015260400190565b600060a0820160a0835280885480835260c08501915089845260209250828420845b82811015610a67578154610a579085906001600160a01b0316610825565b9284019260019182019101610a39565b50505083810382850152610a7b81896108df565b9150508281036040840152610a908187610887565b8381036060850152610aa28187610832565b9150508281036080840152610ab78185610967565b98975050505050505050565b901515815260200190565b6000602082526107ee602083018461091c565b60208082526033908201527f43726f776450726f706f73616c3a3a70726f706f73653a20676f762070726f706040820152726f73616c20616c72656164792065786973747360681b606082015260800190565b6020808252603e908201527f43726f776450726f706f73616c3a3a7465726d696e6174653a2070726f706f7360408201527f616c20686173206265656e20616c7265616479207465726d696e617465640000606082015260800190565b60208082526033908201527f43726f776450726f706f73616c3a3a7465726d696e6174653a206f6e6c7920616040820152727574686f722063616e207465726d696e61746560681b606082015260800190565b6020808252603a908201527f43726f776450726f706f73616c3a3a766f74653a20676f762070726f706f736160408201527f6c20686173206e6f74206265656e206372656174656420796574000000000000606082015260800190565b60208082526034908201527f43726f776450726f706f73616c3a3a70726f706f73653a2070726f706f73616c604082015273081a185cc81899595b881d195c9b5a5b985d195960621b606082015260800190565b90815260200190565b9182521515602082015260400190565b6000908152602090209056fea2646970667358221220d28a1c67f948663afa51f8d41281a7edf2701a71d378ebe323409b242de007de64736f6c634300060a0033",
  "immutableReferences": {
    "6": [
      {
        "length": 32,
        "start": 509
      },
      {
        "length": 32,
        "start": 691
      },
      {
        "length": 32,
        "start": 950
      },
      {
        "length": 32,
        "start": 1599
      },
      {
        "length": 32,
        "start": 1905
      }
    ],
    "24": [
      {
        "length": 32,
        "start": 425
      },
      {
        "length": 32,
        "start": 650
      }
    ],
    "27": [
      {
        "length": 32,
        "start": 1027
      },
      {
        "length": 32,
        "start": 1166
      },
      {
        "length": 32,
        "start": 1740
      }
    ]
  },
  "source": "pragma solidity ^0.6.10;\npragma experimental ABIEncoderV2;\n\nimport './IMpoint.sol';\n\ncontract CrowdProposal {\n    /// @notice The crowd proposal author\n    address payable public immutable author;\n\n    /// @notice Governance proposal data\n    address[] public targets;\n    uint[] public values;\n    string[] public signatures;\n    bytes[] public calldatas;\n    string public description;\n\n    /// @notice Mpoints token contract address\n    address public immutable mpoint;\n    /// @notice Mpoint protocol `GovernorAlpha` contract address\n    address public immutable governor;\n\n    /// @notice Governance proposal id\n    uint public govProposalId;\n    /// @notice Terminate flag\n    bool public terminated;\n\n    /// @notice An event emitted when the governance proposal is created\n    event CrowdProposalProposed(address indexed proposal, address indexed author, uint proposalId);\n    /// @notice An event emitted when the crowd proposal is terminated\n    event CrowdProposalTerminated(address indexed proposal, address indexed author);\n    /// @notice An event emitted when delegated votes are transfered to the governance proposal\n    event CrowdProposalVoted(address indexed proposal, uint proposalId);\n\n    /**\n    * @notice Construct crowd proposal\n    * @param author_ The crowd proposal author\n    * @param targets_ The ordered list of target addresses for calls to be made\n    * @param values_ The ordered list of values (i.e. msg.value) to be passed to the calls to be made\n    * @param signatures_ The ordered list of function signatures to be called\n    * @param calldatas_ The ordered list of calldata to be passed to each call\n    * @param description_ The block at which voting begins: holders must delegate their votes prior to this block\n    * @param mpoint_ `Mpoint` token contract address\n    * @param governor_ Mpoint protocol `GovernorAlpha` contract address\n    */\n    constructor (\n        address payable author_,\n        address[] memory targets_,\n        uint[] memory values_,\n        string[] memory signatures_,\n        bytes[] memory calldatas_,\n        string memory description_,\n        address mpoint_,\n        address governor_\n    ) public {\n        author = author_;\n\n        // Save proposal data\n        targets = targets_;\n        values = values_;\n        signatures = signatures_;\n        calldatas = calldatas_;\n        description = description_;\n\n        // Save Mpoint contracts data\n        mpoint = mpoint_;\n        governor = governor_;\n\n        terminated = false;\n\n        // Delegate votes to the crowd proposal\n        IMpoint(mpoint_).delegate(address(this));\n    }\n\n    /// @notice Create governance proposal\n    function propose() external returns (uint) {\n        require(govProposalId == 0, 'CrowdProposal::propose: gov proposal already exists');\n        require(!terminated, 'CrowdProposal::propose: proposal has been terminated');\n\n        // Create governance proposal and save proposal id\n        govProposalId = IGovernorAlpha(governor).propose(targets, values, signatures, calldatas, description);\n        emit CrowdProposalProposed(address(this), author, govProposalId);\n\n        return govProposalId;\n    }\n\n    /// @notice Terminate the crowd proposal, send back staked Mpoint tokens\n    function terminate() external {\n        require(msg.sender == author, 'CrowdProposal::terminate: only author can terminate');\n        require(!terminated, 'CrowdProposal::terminate: proposal has been already terminated');\n\n        terminated = true;\n\n        // Transfer staked Mpoint tokens from the crowd proposal contract back to the author\n        IMpoint(mpoint).transfer(author, IMpoint(mpoint).balanceOf(address(this)));\n\n        emit CrowdProposalTerminated(address(this), author);\n    }\n\n    /// @notice Vote for the governance proposal with all delegated votes\n    function vote() external {\n        require(govProposalId > 0, 'CrowdProposal::vote: gov proposal has not been created yet');\n        IGovernorAlpha(governor).castVote(govProposalId, true);\n\n        emit CrowdProposalVoted(address(this), govProposalId);\n    }\n}\n",
  "sourcePath": "/Volumes/Projects/Projects/Minetwork/dao-contract/contracts/CrowdProposal.sol",
  "compiler": {
    "name": "solc",
    "version": "0.6.10+commit.00c0fcaf.Emscripten.clang"
  },
  "schemaVersion": "3.2.5",
  "updatedAt": "2020-10-06T22:39:25.585Z",
  "devdoc": {
    "methods": {
      "constructor": {
        "params": {
          "author_": "The crowd proposal author",
          "calldatas_": "The ordered list of calldata to be passed to each call",
          "description_": "The block at which voting begins: holders must delegate their votes prior to this block",
          "governor_": "Mpoint protocol `GovernorAlpha` contract address",
          "mpoint_": "`Mpoint` token contract address",
          "signatures_": "The ordered list of function signatures to be called",
          "targets_": "The ordered list of target addresses for calls to be made",
          "values_": "The ordered list of values (i.e. msg.value) to be passed to the calls to be made"
        }
      }
    }
  },
  "userdoc": {
    "methods": {
      "author()": {
        "notice": "The crowd proposal author"
      },
      "constructor": "Construct crowd proposal",
      "govProposalId()": {
        "notice": "Governance proposal id"
      },
      "governor()": {
        "notice": "Mpoint protocol `GovernorAlpha` contract address"
      },
      "mpoint()": {
        "notice": "Mpoints token contract address"
      },
      "propose()": {
        "notice": "Create governance proposal"
      },
      "targets(uint256)": {
        "notice": "Governance proposal data"
      },
      "terminate()": {
        "notice": "Terminate the crowd proposal, send back staked Mpoint tokens"
      },
      "terminated()": {
        "notice": "Terminate flag"
      },
      "vote()": {
        "notice": "Vote for the governance proposal with all delegated votes"
      }
    }
  }
}