{
  "contractName": "GovernorAlpha",
  "abi": [
    {
      "inputs": [
        {
          "internalType": "address",
          "name": "timelock_",
          "type": "address"
        },
        {
          "internalType": "address",
          "name": "mpoint_",
          "type": "address"
        },
        {
          "internalType": "address",
          "name": "guardian_",
          "type": "address"
        }
      ],
      "stateMutability": "nonpayable",
      "type": "constructor"
    },
    {
      "anonymous": false,
      "inputs": [
        {
          "indexed": false,
          "internalType": "uint256",
          "name": "id",
          "type": "uint256"
        }
      ],
      "name": "ProposalCanceled",
      "type": "event"
    },
    {
      "anonymous": false,
      "inputs": [
        {
          "indexed": false,
          "internalType": "uint256",
          "name": "id",
          "type": "uint256"
        },
        {
          "indexed": false,
          "internalType": "address",
          "name": "proposer",
          "type": "address"
        },
        {
          "indexed": false,
          "internalType": "address[]",
          "name": "targets",
          "type": "address[]"
        },
        {
          "indexed": false,
          "internalType": "uint256[]",
          "name": "values",
          "type": "uint256[]"
        },
        {
          "indexed": false,
          "internalType": "string[]",
          "name": "signatures",
          "type": "string[]"
        },
        {
          "indexed": false,
          "internalType": "bytes[]",
          "name": "calldatas",
          "type": "bytes[]"
        },
        {
          "indexed": false,
          "internalType": "uint256",
          "name": "startBlock",
          "type": "uint256"
        },
        {
          "indexed": false,
          "internalType": "uint256",
          "name": "endBlock",
          "type": "uint256"
        },
        {
          "indexed": false,
          "internalType": "string",
          "name": "description",
          "type": "string"
        }
      ],
      "name": "ProposalCreated",
      "type": "event"
    },
    {
      "anonymous": false,
      "inputs": [
        {
          "indexed": false,
          "internalType": "uint256",
          "name": "id",
          "type": "uint256"
        }
      ],
      "name": "ProposalExecuted",
      "type": "event"
    },
    {
      "anonymous": false,
      "inputs": [
        {
          "indexed": false,
          "internalType": "uint256",
          "name": "id",
          "type": "uint256"
        },
        {
          "indexed": false,
          "internalType": "uint256",
          "name": "eta",
          "type": "uint256"
        }
      ],
      "name": "ProposalQueued",
      "type": "event"
    },
    {
      "anonymous": false,
      "inputs": [
        {
          "indexed": false,
          "internalType": "address",
          "name": "voter",
          "type": "address"
        },
        {
          "indexed": false,
          "internalType": "uint256",
          "name": "proposalId",
          "type": "uint256"
        },
        {
          "indexed": false,
          "internalType": "bool",
          "name": "support",
          "type": "bool"
        },
        {
          "indexed": false,
          "internalType": "uint256",
          "name": "votes",
          "type": "uint256"
        }
      ],
      "name": "VoteCast",
      "type": "event"
    },
    {
      "inputs": [],
      "name": "BALLOT_TYPEHASH",
      "outputs": [
        {
          "internalType": "bytes32",
          "name": "",
          "type": "bytes32"
        }
      ],
      "stateMutability": "view",
      "type": "function"
    },
    {
      "inputs": [],
      "name": "DOMAIN_TYPEHASH",
      "outputs": [
        {
          "internalType": "bytes32",
          "name": "",
          "type": "bytes32"
        }
      ],
      "stateMutability": "view",
      "type": "function"
    },
    {
      "inputs": [],
      "name": "guardian",
      "outputs": [
        {
          "internalType": "address",
          "name": "",
          "type": "address"
        }
      ],
      "stateMutability": "view",
      "type": "function"
    },
    {
      "inputs": [
        {
          "internalType": "address",
          "name": "",
          "type": "address"
        }
      ],
      "name": "latestProposalIds",
      "outputs": [
        {
          "internalType": "uint256",
          "name": "",
          "type": "uint256"
        }
      ],
      "stateMutability": "view",
      "type": "function"
    },
    {
      "inputs": [],
      "name": "mpoint",
      "outputs": [
        {
          "internalType": "contract MpointInterface",
          "name": "",
          "type": "address"
        }
      ],
      "stateMutability": "view",
      "type": "function"
    },
    {
      "inputs": [],
      "name": "name",
      "outputs": [
        {
          "internalType": "string",
          "name": "",
          "type": "string"
        }
      ],
      "stateMutability": "view",
      "type": "function"
    },
    {
      "inputs": [],
      "name": "proposalCount",
      "outputs": [
        {
          "internalType": "uint256",
          "name": "",
          "type": "uint256"
        }
      ],
      "stateMutability": "view",
      "type": "function"
    },
    {
      "inputs": [
        {
          "internalType": "uint256",
          "name": "",
          "type": "uint256"
        }
      ],
      "name": "proposals",
      "outputs": [
        {
          "internalType": "uint256",
          "name": "id",
          "type": "uint256"
        },
        {
          "internalType": "address",
          "name": "proposer",
          "type": "address"
        },
        {
          "internalType": "uint256",
          "name": "eta",
          "type": "uint256"
        },
        {
          "internalType": "uint256",
          "name": "startBlock",
          "type": "uint256"
        },
        {
          "internalType": "uint256",
          "name": "endBlock",
          "type": "uint256"
        },
        {
          "internalType": "uint256",
          "name": "forVotes",
          "type": "uint256"
        },
        {
          "internalType": "uint256",
          "name": "againstVotes",
          "type": "uint256"
        },
        {
          "internalType": "bool",
          "name": "canceled",
          "type": "bool"
        },
        {
          "internalType": "bool",
          "name": "executed",
          "type": "bool"
        }
      ],
      "stateMutability": "view",
      "type": "function"
    },
    {
      "inputs": [],
      "name": "timelock",
      "outputs": [
        {
          "internalType": "contract TimelockInterface",
          "name": "",
          "type": "address"
        }
      ],
      "stateMutability": "view",
      "type": "function"
    },
    {
      "inputs": [],
      "name": "quorumVotes",
      "outputs": [
        {
          "internalType": "uint256",
          "name": "",
          "type": "uint256"
        }
      ],
      "stateMutability": "pure",
      "type": "function"
    },
    {
      "inputs": [],
      "name": "proposalThreshold",
      "outputs": [
        {
          "internalType": "uint256",
          "name": "",
          "type": "uint256"
        }
      ],
      "stateMutability": "pure",
      "type": "function"
    },
    {
      "inputs": [],
      "name": "proposalMaxOperations",
      "outputs": [
        {
          "internalType": "uint256",
          "name": "",
          "type": "uint256"
        }
      ],
      "stateMutability": "pure",
      "type": "function"
    },
    {
      "inputs": [],
      "name": "votingDelay",
      "outputs": [
        {
          "internalType": "uint256",
          "name": "",
          "type": "uint256"
        }
      ],
      "stateMutability": "pure",
      "type": "function"
    },
    {
      "inputs": [],
      "name": "votingPeriod",
      "outputs": [
        {
          "internalType": "uint256",
          "name": "",
          "type": "uint256"
        }
      ],
      "stateMutability": "pure",
      "type": "function"
    },
    {
      "inputs": [
        {
          "internalType": "address[]",
          "name": "targets",
          "type": "address[]"
        },
        {
          "internalType": "uint256[]",
          "name": "values",
          "type": "uint256[]"
        },
        {
          "internalType": "string[]",
          "name": "signatures",
          "type": "string[]"
        },
        {
          "internalType": "bytes[]",
          "name": "calldatas",
          "type": "bytes[]"
        },
        {
          "internalType": "string",
          "name": "description",
          "type": "string"
        }
      ],
      "name": "propose",
      "outputs": [
        {
          "internalType": "uint256",
          "name": "",
          "type": "uint256"
        }
      ],
      "stateMutability": "nonpayable",
      "type": "function"
    },
    {
      "inputs": [
        {
          "internalType": "uint256",
          "name": "proposalId",
          "type": "uint256"
        }
      ],
      "name": "queue",
      "outputs": [],
      "stateMutability": "nonpayable",
      "type": "function"
    },
    {
      "inputs": [
        {
          "internalType": "uint256",
          "name": "proposalId",
          "type": "uint256"
        }
      ],
      "name": "execute",
      "outputs": [],
      "stateMutability": "payable",
      "type": "function"
    },
    {
      "inputs": [
        {
          "internalType": "uint256",
          "name": "proposalId",
          "type": "uint256"
        }
      ],
      "name": "cancel",
      "outputs": [],
      "stateMutability": "nonpayable",
      "type": "function"
    },
    {
      "inputs": [
        {
          "internalType": "uint256",
          "name": "proposalId",
          "type": "uint256"
        }
      ],
      "name": "getActions",
      "outputs": [
        {
          "internalType": "address[]",
          "name": "targets",
          "type": "address[]"
        },
        {
          "internalType": "uint256[]",
          "name": "values",
          "type": "uint256[]"
        },
        {
          "internalType": "string[]",
          "name": "signatures",
          "type": "string[]"
        },
        {
          "internalType": "bytes[]",
          "name": "calldatas",
          "type": "bytes[]"
        }
      ],
      "stateMutability": "view",
      "type": "function"
    },
    {
      "inputs": [
        {
          "internalType": "uint256",
          "name": "proposalId",
          "type": "uint256"
        },
        {
          "internalType": "address",
          "name": "voter",
          "type": "address"
        }
      ],
      "name": "getReceipt",
      "outputs": [
        {
          "components": [
            {
              "internalType": "bool",
              "name": "hasVoted",
              "type": "bool"
            },
            {
              "internalType": "bool",
              "name": "support",
              "type": "bool"
            },
            {
              "internalType": "uint96",
              "name": "votes",
              "type": "uint96"
            }
          ],
          "internalType": "struct GovernorAlpha.Receipt",
          "name": "",
          "type": "tuple"
        }
      ],
      "stateMutability": "view",
      "type": "function"
    },
    {
      "inputs": [
        {
          "internalType": "uint256",
          "name": "proposalId",
          "type": "uint256"
        }
      ],
      "name": "state",
      "outputs": [
        {
          "internalType": "enum GovernorAlpha.ProposalState",
          "name": "",
          "type": "uint8"
        }
      ],
      "stateMutability": "view",
      "type": "function"
    },
    {
      "inputs": [
        {
          "internalType": "uint256",
          "name": "proposalId",
          "type": "uint256"
        },
        {
          "internalType": "bool",
          "name": "support",
          "type": "bool"
        }
      ],
      "name": "castVote",
      "outputs": [],
      "stateMutability": "nonpayable",
      "type": "function"
    },
    {
      "inputs": [
        {
          "internalType": "uint256",
          "name": "proposalId",
          "type": "uint256"
        },
        {
          "internalType": "bool",
          "name": "support",
          "type": "bool"
        },
        {
          "internalType": "uint8",
          "name": "v",
          "type": "uint8"
        },
        {
          "internalType": "bytes32",
          "name": "r",
          "type": "bytes32"
        },
        {
          "internalType": "bytes32",
          "name": "s",
          "type": "bytes32"
        }
      ],
      "name": "castVoteBySig",
      "outputs": [],
      "stateMutability": "nonpayable",
      "type": "function"
    },
    {
      "inputs": [],
      "name": "__acceptAdmin",
      "outputs": [],
      "stateMutability": "nonpayable",
      "type": "function"
    },
    {
      "inputs": [],
      "name": "__abdicate",
      "outputs": [],
      "stateMutability": "nonpayable",
      "type": "function"
    },
    {
      "inputs": [
        {
          "internalType": "address",
          "name": "newPendingAdmin",
          "type": "address"
        },
        {
          "internalType": "uint256",
          "name": "eta",
          "type": "uint256"
        }
      ],
      "name": "__queueSetTimelockPendingAdmin",
      "outputs": [],
      "stateMutability": "nonpayable",
      "type": "function"
    },
    {
      "inputs": [
        {
          "internalType": "address",
          "name": "newPendingAdmin",
          "type": "address"
        },
        {
          "internalType": "uint256",
          "name": "eta",
          "type": "uint256"
        }
      ],
      "name": "__executeSetTimelockPendingAdmin",
      "outputs": [],
      "stateMutability": "nonpayable",
      "type": "function"
    }
  ],
  "bytecode": "0x60806040523480156200001157600080fd5b506040516200332f3803806200332f833981016040819052620000349162000077565b600080546001600160a01b039485166001600160a01b031991821617909155600180549385169382169390931790925560028054919093169116179055620000e3565b6000806000606084860312156200008c578283fd5b83516200009981620000ca565b6020850151909350620000ac81620000ca565b6040850151909250620000bf81620000ca565b809150509250925092565b6001600160a01b0381168114620000e057600080fd5b50565b61323c80620000f36000396000f3fe60806040526004361061019c5760003560e01c8063452a9320116100ec578063d33219b41161008a578063ddf0b00911610064578063ddf0b00914610456578063deaaa7cc14610476578063e23a9a521461048b578063fe0d94c1146104b85761019c565b8063d33219b41461040c578063da35c66414610421578063da95691a146104365761019c565b80637bdbe4d0116100c65780637bdbe4d0146103ad57806391500671146103c2578063b58131b0146103e2578063b9a61961146103f75761019c565b8063452a9320146103635780634634c61f14610378578063760fbc13146103985761019c565b806320606b7011610159578063328dd98211610133578063328dd982146102d15780633932abb1146103015780633e4f49e61461031657806340e58ee5146103435761019c565b806320606b701461028757806321f43e421461029c57806324bc1a64146102bc5761019c565b8063013cf08b146101a157806302a251a3146101df57806304af359f1461020157806306fdde031461022357806315373e3d1461024557806317977c6114610267575b600080fd5b3480156101ad57600080fd5b506101c16101bc366004612394565b6104cb565b6040516101d6999897969594939291906130fb565b60405180910390f35b3480156101eb57600080fd5b506101f4610524565b6040516101d6919061284a565b34801561020d57600080fd5b5061021661052b565b6040516101d691906126a4565b34801561022f57600080fd5b5061023861053a565b6040516101d691906128c1565b34801561025157600080fd5b506102656102603660046123d8565b61056c565b005b34801561027357600080fd5b506101f46102823660046121d9565b61057b565b34801561029357600080fd5b506101f461058d565b3480156102a857600080fd5b506102656102b73660046121f4565b6105a4565b3480156102c857600080fd5b506101f461068b565b3480156102dd57600080fd5b506102f16102ec366004612394565b610699565b6040516101d694939291906127f3565b34801561030d57600080fd5b506101f4610928565b34801561032257600080fd5b50610336610331366004612394565b61092d565b6040516101d691906128ad565b34801561034f57600080fd5b5061026561035e366004612394565b610aaf565b34801561036f57600080fd5b50610216610d18565b34801561038457600080fd5b50610265610393366004612407565b610d27565b3480156103a457600080fd5b50610265610ebd565b3480156103b957600080fd5b506101f4610ef9565b3480156103ce57600080fd5b506102656103dd3660046121f4565b610efe565b3480156103ee57600080fd5b506101f4610fd3565b34801561040357600080fd5b50610265610fe1565b34801561041857600080fd5b50610216611066565b34801561042d57600080fd5b506101f4611075565b34801561044257600080fd5b506101f461045136600461221e565b61107b565b34801561046257600080fd5b50610265610471366004612394565b61149b565b34801561048257600080fd5b506101f4611705565b34801561049757600080fd5b506104ab6104a63660046123ac565b611711565b6040516101d69190613037565b6102656104c6366004612394565b611780565b6004602052600090815260409020805460018201546002830154600784015460088501546009860154600a870154600b9097015495966001600160a01b0390951695939492939192909160ff8082169161010090041689565b6143805b90565b6001546001600160a01b031681565b604051806040016040528060168152602001754d706f696e747320476f7665726e6f7220416c70686160501b81525081565b610577338383611945565b5050565b60056020526000908152604090205481565b60405161059990612610565b604051809103902081565b6002546001600160a01b031633146105d75760405162461bcd60e51b81526004016105ce90612a06565b60405180910390fd5b600080546040516001600160a01b0390911691630825f38f918391906106019087906020016126a4565b604051602081830303815290604052856040518563ffffffff1660e01b815260040161063094939291906126d1565b600060405180830381600087803b15801561064a57600080fd5b505af115801561065e573d6000803e3d6000fd5b505050506040513d6000823e601f3d908101601f19168201604052610686919081019061231e565b505050565b6954b40b1f852bda00000090565b6060806060806000600460008781526020019081526020016000209050806003018160040182600501836006018380548060200260200160405190810160405280929190818152602001828054801561071b57602002820191906000526020600020905b81546001600160a01b031681526001909101906020018083116106fd575b505050505093508280548060200260200160405190810160405280929190818152602001828054801561076d57602002820191906000526020600020905b815481526020019060010190808311610759575b5050505050925081805480602002602001604051908101604052809291908181526020016000905b828210156108405760008481526020908190208301805460408051601f600260001961010060018716150201909416939093049283018590048502810185019091528181529283018282801561082c5780601f106108015761010080835404028352916020019161082c565b820191906000526020600020905b81548152906001019060200180831161080f57829003601f168201915b505050505081526020019060010190610795565b50505050915080805480602002602001604051908101604052809291908181526020016000905b828210156109125760008481526020908190208301805460408051601f60026000196101006001871615020190941693909304928301859004850281018501909152818152928301828280156108fe5780601f106108d3576101008083540402835291602001916108fe565b820191906000526020600020905b8154815290600101906020018083116108e157829003601f168201915b505050505081526020019060010190610867565b5050505090509450945094509450509193509193565b600190565b600081600354101580156109415750600082115b61095d5760405162461bcd60e51b81526004016105ce90612a78565b6000828152600460205260409020600b81015460ff1615610982576002915050610aaa565b80600701544311610997576000915050610aaa565b806008015443116109ac576001915050610aaa565b80600a015481600901541115806109cd57506109c661068b565b8160090154105b156109dc576003915050610aaa565b60028101546109ef576004915050610aaa565b600b810154610100900460ff1615610a0b576007915050610aaa565b6002810154600054604080516360d143f160e11b81529051610a9493926001600160a01b03169163c1a287e2916004808301926020929190829003018186803b158015610a5757600080fd5b505afa158015610a6b573d6000803e3d6000fd5b505050506040513d601f19601f82011682018060405250810190610a8f9190612306565b611b0e565b4210610aa4576006915050610aaa565b60059150505b919050565b6000610aba8261092d565b90506007816007811115610aca57fe5b1415610ae85760405162461bcd60e51b81526004016105ce90612f12565b60008281526004602052604090206002546001600160a01b0316331480610bb35750610b12610fd3565b60018054838201546001600160a01b039182169263782d6fe19290911690610b3b904390611b3a565b6040518363ffffffff1660e01b8152600401610b589291906126b8565b60206040518083038186803b158015610b7057600080fd5b505afa158015610b84573d6000803e3d6000fd5b505050506040513d601f19601f82011682018060405250810190610ba8919061245d565b6001600160601b0316105b610bcf5760405162461bcd60e51b81526004016105ce90612cde565b600b8101805460ff1916600117905560005b6003820154811015610cdb576000546003830180546001600160a01b039092169163591fcdfe919084908110610c1357fe5b6000918252602090912001546004850180546001600160a01b039092169185908110610c3b57fe5b9060005260206000200154856005018581548110610c5557fe5b90600052602060002001866006018681548110610c6e57fe5b9060005260206000200187600201546040518663ffffffff1660e01b8152600401610c9d9594939291906127ba565b600060405180830381600087803b158015610cb757600080fd5b505af1158015610ccb573d6000803e3d6000fd5b505060019092019150610be19050565b507f789cf55be980739dad1d0699b93b58e806b51c9d96619bfa8fe0a28abaa7b30c83604051610d0b919061284a565b60405180910390a1505050565b6002546001600160a01b031681565b6000604051610d3590612610565b6040805191829003822082820190915260168252754d706f696e747320476f7665726e6f7220416c70686160501b6020909201919091527f8326dff3c5d73a2d90ceb38cff659efa2dc773b280186e11e4a01c2cde8ba29c610d95611b62565b30604051602001610da99493929190612853565b6040516020818303038152906040528051906020012090506000604051610dcf9061266b565b604051908190038120610de89189908990602001612877565b60405160208183030381529060405280519060200120905060008282604051602001610e159291906125f5565b604051602081830303815290604052805190602001209050600060018288888860405160008152602001604052604051610e52949392919061288f565b6020604051602081039080840390855afa158015610e74573d6000803e3d6000fd5b5050604051601f1901519150506001600160a01b038116610ea75760405162461bcd60e51b81526004016105ce90612e40565b610eb2818a8a611945565b505050505050505050565b6002546001600160a01b03163314610ee75760405162461bcd60e51b81526004016105ce90612fe1565b600280546001600160a01b0319169055565b600a90565b6002546001600160a01b03163314610f285760405162461bcd60e51b81526004016105ce90612b91565b600080546040516001600160a01b0390911691633a66f90191839190610f529087906020016126a4565b604051602081830303815290604052856040518563ffffffff1660e01b8152600401610f8194939291906126d1565b602060405180830381600087803b158015610f9b57600080fd5b505af1158015610faf573d6000803e3d6000fd5b505050506040513d601f19601f820116820180604052508101906106869190612306565b69152d02c7e14af680000090565b6002546001600160a01b0316331461100b5760405162461bcd60e51b81526004016105ce906128d4565b6000805460408051630e18b68160e01b815290516001600160a01b0390921692630e18b6819260048084019382900301818387803b15801561104c57600080fd5b505af1158015611060573d6000803e3d6000fd5b50505050565b6000546001600160a01b031681565b60035481565b6000611085610fd3565b600180546001600160a01b03169063782d6fe19033906110a6904390611b3a565b6040518363ffffffff1660e01b81526004016110c39291906126b8565b60206040518083038186803b1580156110db57600080fd5b505afa1580156110ef573d6000803e3d6000fd5b505050506040513d601f19601f82011682018060405250810190611113919061245d565b6001600160601b0316116111395760405162461bcd60e51b81526004016105ce90612de3565b8451865114801561114b575083518651145b8015611158575082518651145b6111745760405162461bcd60e51b81526004016105ce90612c74565b85516111925760405162461bcd60e51b81526004016105ce90612d97565b61119a610ef9565b865111156111ba5760405162461bcd60e51b81526004016105ce90612c01565b3360009081526005602052604090205480156112375760006111db8261092d565b905060018160078111156111eb57fe5b14156112095760405162461bcd60e51b81526004016105ce90612e8f565b600081600781111561121757fe5b14156112355760405162461bcd60e51b81526004016105ce90612b0e565b505b600061124543610a8f610928565b9050600061125582610a8f610524565b6003805460010190559050611268611cc5565b604051806101a001604052806003548152602001336001600160a01b03168152602001600081526020018b81526020018a815260200189815260200188815260200184815260200183815260200160008152602001600081526020016000151581526020016000151581525090508060046000836000015181526020019081526020016000206000820151816000015560208201518160010160006101000a8154816001600160a01b0302191690836001600160a01b0316021790555060408201518160020155606082015181600301908051906020019061134b929190611d3a565b5060808201518051611367916004840191602090910190611d9f565b5060a08201518051611383916005840191602090910190611de6565b5060c0820151805161139f916006840191602090910190611e3f565b5060e082015181600701556101008201518160080155610120820151816009015561014082015181600a015561016082015181600b0160006101000a81548160ff02191690831515021790555061018082015181600b0160016101000a81548160ff02191690831515021790555090505080600001516005600083602001516001600160a01b03166001600160a01b03168152602001908152602001600020819055507f7d84a6263ae0d98d3329bd7b46bb4e8d6f98cd35a7adb45c274c8b7fd5ebd5e08160000151338c8c8c8c89898e60405161148599989796959493929190613065565b60405180910390a1519998505050505050505050565b60046114a68261092d565b60078111156114b157fe5b146114ce5760405162461bcd60e51b81526004016105ce90612931565b600081815260046020818152604080842084548251630d48571f60e31b815292519195946115239442946001600160a01b0390931693636a42b8f8938084019390829003018186803b158015610a5757600080fd5b905060005b60038301548110156116cb576116c383600301828154811061154657fe5b6000918252602090912001546004850180546001600160a01b03909216918490811061156e57fe5b906000526020600020015485600501848154811061158857fe5b600091825260209182902001805460408051601f60026000196101006001871615020190941693909304928301859004850281018501909152818152928301828280156116165780601f106115eb57610100808354040283529160200191611616565b820191906000526020600020905b8154815290600101906020018083116115f957829003601f168201915b505050505086600601858154811061162a57fe5b600091825260209182902001805460408051601f60026000196101006001871615020190941693909304928301859004850281018501909152818152928301828280156116b85780601f1061168d576101008083540402835291602001916116b8565b820191906000526020600020905b81548152906001019060200180831161169b57829003601f168201915b505050505086611b66565b600101611528565b50600282018190556040517f9a2e42fd6722813d69113e7d0079d3d940171428df7373df9c7f7617cfda289290610d0b9085908490613147565b6040516105999061266b565b611719611e98565b5060008281526004602090815260408083206001600160a01b0385168452600c018252918290208251606081018452905460ff80821615158352610100820416151592820192909252620100009091046001600160601b0316918101919091525b92915050565b600561178b8261092d565b600781111561179657fe5b146117b35760405162461bcd60e51b81526004016105ce9061299b565b6000818152600460205260408120600b8101805461ff001916610100179055905b6003820154811015611909576000546004830180546001600160a01b0390921691630825f38f91908490811061180657fe5b906000526020600020015484600301848154811061182057fe5b6000918252602090912001546004860180546001600160a01b03909216918690811061184857fe5b906000526020600020015486600501868154811061186257fe5b9060005260206000200187600601878154811061187b57fe5b9060005260206000200188600201546040518763ffffffff1660e01b81526004016118aa9594939291906127ba565b6000604051808303818588803b1580156118c357600080fd5b505af11580156118d7573d6000803e3d6000fd5b50505050506040513d6000823e601f3d908101601f19168201604052611900919081019061231e565b506001016117d4565b507f712ae1383f79ac853f8d882153778e0260ef8f03b504e2866e0593e04d2b291f82604051611939919061284a565b60405180910390a15050565b60016119508361092d565b600781111561195b57fe5b146119785760405162461bcd60e51b81526004016105ce90612f68565b60008281526004602090815260408083206001600160a01b0387168452600c8101909252909120805460ff16156119c15760405162461bcd60e51b81526004016105ce90612ac1565b600154600783015460405163782d6fe160e01b81526000926001600160a01b03169163782d6fe1916119f7918a916004016126b8565b60206040518083038186803b158015611a0f57600080fd5b505afa158015611a23573d6000803e3d6000fd5b505050506040513d601f19601f82011682018060405250810190611a47919061245d565b90508315611a7057611a668360090154826001600160601b0316611b0e565b6009840155611a8d565b611a8783600a0154826001600160601b0316611b0e565b600a8401555b8154600160ff199091161761ff00191661010085151502176dffffffffffffffffffffffff00001916620100006001600160601b038316021782556040517f877856338e13f63d0c36822ff0ef736b80934cd90574a3a5bc9262c39d217c4690611afe90889088908890869061273d565b60405180910390a1505050505050565b600082820183811015611b335760405162461bcd60e51b81526004016105ce90612c49565b9392505050565b600082821115611b5c5760405162461bcd60e51b81526004016105ce90612fb2565b50900390565b4690565b6000546040516001600160a01b039091169063f2b0653790611b94908890889088908890889060200161276e565b604051602081830303815290604052805190602001206040518263ffffffff1660e01b8152600401611bc6919061284a565b60206040518083038186803b158015611bde57600080fd5b505afa158015611bf2573d6000803e3d6000fd5b505050506040513d601f19601f82011682018060405250810190611c1691906122ea565b15611c335760405162461bcd60e51b81526004016105ce90612d2d565b600054604051633a66f90160e01b81526001600160a01b0390911690633a66f90190611c6b908890889088908890889060040161276e565b602060405180830381600087803b158015611c8557600080fd5b505af1158015611c99573d6000803e3d6000fd5b505050506040513d601f19601f82011682018060405250810190611cbd9190612306565b505050505050565b604051806101a001604052806000815260200160006001600160a01b031681526020016000815260200160608152602001606081526020016060815260200160608152602001600081526020016000815260200160008152602001600081526020016000151581526020016000151581525090565b828054828255906000526020600020908101928215611d8f579160200282015b82811115611d8f57825182546001600160a01b0319166001600160a01b03909116178255602090920191600190910190611d5a565b50611d9b929150611eb8565b5090565b828054828255906000526020600020908101928215611dda579160200282015b82811115611dda578251825591602001919060010190611dbf565b50611d9b929150611edc565b828054828255906000526020600020908101928215611e33579160200282015b82811115611e335782518051611e23918491602090910190611ef6565b5091602001919060010190611e06565b50611d9b929150611f63565b828054828255906000526020600020908101928215611e8c579160200282015b82811115611e8c5782518051611e7c918491602090910190611ef6565b5091602001919060010190611e5f565b50611d9b929150611f86565b604080516060810182526000808252602082018190529181019190915290565b61052891905b80821115611d9b5780546001600160a01b0319168155600101611ebe565b61052891905b80821115611d9b5760008155600101611ee2565b828054600181600116156101000203166002900490600052602060002090601f016020900481019282601f10611f3757805160ff1916838001178555611dda565b82800160010185558215611dda5791820182811115611dda578251825591602001919060010190611dbf565b61052891905b80821115611d9b576000611f7d8282611fa9565b50600101611f69565b61052891905b80821115611d9b576000611fa08282611fa9565b50600101611f8c565b50805460018160011615610100020316600290046000825580601f10611fcf5750611fed565b601f016020900490600052602060002090810190611fed9190611edc565b50565b80356001600160a01b038116811461177a57600080fd5b600082601f830112612017578081fd5b813561202a6120258261317c565b613155565b81815291506020808301908481018184028601820187101561204b57600080fd5b60005b84811015612072576120608883611ff0565b8452928201929082019060010161204e565b505050505092915050565b600082601f83011261208d578081fd5b813561209b6120258261317c565b818152915060208083019084810160005b84811015612072576120c3888484358a010161218b565b845292820192908201906001016120ac565b600082601f8301126120e5578081fd5b81356120f36120258261317c565b818152915060208083019084810160005b848110156120725761211b888484358a010161218b565b84529282019290820190600101612104565b600082601f83011261213d578081fd5b813561214b6120258261317c565b81815291506020808301908481018184028601820187101561216c57600080fd5b60005b848110156120725781358452928201929082019060010161216f565b600082601f83011261219b578081fd5b81356121a96120258261319c565b91508082528360208285010111156121c057600080fd5b8060208401602084013760009082016020015292915050565b6000602082840312156121ea578081fd5b611b338383611ff0565b60008060408385031215612206578081fd5b6122108484611ff0565b946020939093013593505050565b600080600080600060a08688031215612235578081fd5b853567ffffffffffffffff8082111561224c578283fd5b61225889838a01612007565b9650602088013591508082111561226d578283fd5b61227989838a0161212d565b9550604088013591508082111561228e578283fd5b61229a89838a016120d5565b945060608801359150808211156122af578283fd5b6122bb89838a0161207d565b935060808801359150808211156122d0578283fd5b506122dd8882890161218b565b9150509295509295909350565b6000602082840312156122fb578081fd5b8151611b33816131f8565b600060208284031215612317578081fd5b5051919050565b60006020828403121561232f578081fd5b815167ffffffffffffffff811115612345578182fd5b80830184601f820112612356578283fd5b805191506123666120258361319c565b82815285602084840101111561237a578384fd5b61238b8360208301602085016131cc565b95945050505050565b6000602082840312156123a5578081fd5b5035919050565b600080604083850312156123be578182fd5b823591506123cf8460208501611ff0565b90509250929050565b600080604083850312156123ea578182fd5b8235915060208301356123fc816131f8565b809150509250929050565b600080600080600060a0868803121561241e578283fd5b853594506020860135612430816131f8565b9350604086013560ff81168114612445578384fd5b94979396509394606081013594506080013592915050565b60006020828403121561246e578081fd5b81516001600160601b0381168114611b33578182fd5b6000815180845260208085019450808401835b838110156124bc5781516001600160a01b031687529582019590820190600101612497565b509495945050505050565b6000815180845260208085019450848183028601828601855b8581101561250a5783830389526124f8838351612546565b988501989250908401906001016124e0565b5090979650505050505050565b6000815180845260208085019450808401835b838110156124bc5781518752958201959082019060010161252a565b6000815180845261255e8160208601602086016131cc565b601f01601f19169290920160200192915050565b6000815460018082166000811461259057600181146125ae576125ec565b60028304607f16865260ff19831660208701526040860193506125ec565b600283048087526125be866131c0565b60005b828110156125e25781546020828b01015284820191506020810190506125c1565b8801602001955050505b50505092915050565b61190160f01b81526002810192909252602282015260420190565b7f454950373132446f6d61696e28737472696e67206e616d652c75696e7432353681527f20636861696e49642c6164647265737320766572696679696e67436f6e74726160208201526263742960e81b604082015260430190565b7f42616c6c6f742875696e743235362070726f706f73616c49642c626f6f6c20738152667570706f72742960c81b602082015260270190565b6001600160a01b0391909116815260200190565b6001600160a01b03929092168252602082015260400190565b600060018060a01b038616825284602083015260a06040830152601860a08301527f73657450656e64696e6741646d696e286164647265737329000000000000000060c083015260e0606083015261272c60e0830185612546565b905082608083015295945050505050565b6001600160a01b039490941684526020840192909252151560408301526001600160601b0316606082015260800190565b600060018060a01b038716825285602083015260a0604083015261279560a0830186612546565b82810360608401526127a78186612546565b9150508260808301529695505050505050565b600060018060a01b038716825285602083015260a060408301526127e160a0830186612572565b82810360608401526127a78186612572565b6000608082526128066080830187612484565b82810360208401526128188187612517565b838103604085015261282a81876124c7565b915050828103606084015261283f81856124c7565b979650505050505050565b90815260200190565b938452602084019290925260408301526001600160a01b0316606082015260800190565b92835260208301919091521515604082015260600190565b93845260ff9290921660208401526040830152606082015260800190565b60208101600883106128bb57fe5b91905290565b600060208252611b336020830184612546565b60208082526039908201527f476f7665726e6f72416c7068613a3a5f5f61636365707441646d696e3a20736560408201527f6e646572206d75737420626520676f7620677561726469616e00000000000000606082015260800190565b60208082526044908201527f476f7665726e6f72416c7068613a3a71756575653a2070726f706f73616c206360408201527f616e206f6e6c79206265207175657565642069662069742069732073756363656060820152631959195960e21b608082015260a00190565b60208082526045908201527f476f7665726e6f72416c7068613a3a657865637574653a2070726f706f73616c60408201527f2063616e206f6e6c7920626520657865637574656420696620697420697320716060820152641d595d595960da1b608082015260a00190565b6020808252604c908201527f476f7665726e6f72416c7068613a3a5f5f6578656375746553657454696d656c60408201527f6f636b50656e64696e6741646d696e3a2073656e646572206d7573742062652060608201526b33b7bb1033bab0b93234b0b760a11b608082015260a00190565b60208082526029908201527f476f7665726e6f72416c7068613a3a73746174653a20696e76616c69642070726040820152681bdc1bdcd85b081a5960ba1b606082015260800190565b6020808252602d908201527f476f7665726e6f72416c7068613a3a5f63617374566f74653a20766f7465722060408201526c185b1c9958591e481d9bdd1959609a1b606082015260800190565b60208082526059908201527f476f7665726e6f72416c7068613a3a70726f706f73653a206f6e65206c69766560408201527f2070726f706f73616c207065722070726f706f7365722c20666f756e6420616e60608201527f20616c72656164792070656e64696e672070726f706f73616c00000000000000608082015260a00190565b6020808252604a908201527f476f7665726e6f72416c7068613a3a5f5f717565756553657454696d656c6f6360408201527f6b50656e64696e6741646d696e3a2073656e646572206d75737420626520676f6060820152693b1033bab0b93234b0b760b11b608082015260a00190565b60208082526028908201527f476f7665726e6f72416c7068613a3a70726f706f73653a20746f6f206d616e7960408201526720616374696f6e7360c01b606082015260800190565b6020808252601190820152706164646974696f6e206f766572666c6f7760781b604082015260600190565b60208082526044908201527f476f7665726e6f72416c7068613a3a70726f706f73653a2070726f706f73616c60408201527f2066756e6374696f6e20696e666f726d6174696f6e206172697479206d69736d6060820152630c2e8c6d60e31b608082015260a00190565b6020808252602f908201527f476f7665726e6f72416c7068613a3a63616e63656c3a2070726f706f7365722060408201526e18589bdd99481d1a1c995cda1bdb19608a1b606082015260800190565b60208082526044908201527f476f7665726e6f72416c7068613a3a5f71756575654f725265766572743a207060408201527f726f706f73616c20616374696f6e20616c7265616479207175657565642061746060820152632065746160e01b608082015260a00190565b6020808252602c908201527f476f7665726e6f72416c7068613a3a70726f706f73653a206d7573742070726f60408201526b7669646520616374696f6e7360a01b606082015260800190565b6020808252603f908201527f476f7665726e6f72416c7068613a3a70726f706f73653a2070726f706f73657260408201527f20766f7465732062656c6f772070726f706f73616c207468726573686f6c6400606082015260800190565b6020808252602f908201527f476f7665726e6f72416c7068613a3a63617374566f746542795369673a20696e60408201526e76616c6964207369676e617475726560881b606082015260800190565b60208082526058908201527f476f7665726e6f72416c7068613a3a70726f706f73653a206f6e65206c69766560408201527f2070726f706f73616c207065722070726f706f7365722c20666f756e6420616e60608201527f20616c7265616479206163746976652070726f706f73616c0000000000000000608082015260a00190565b60208082526036908201527f476f7665726e6f72416c7068613a3a63616e63656c3a2063616e6e6f742063616040820152751b98d95b08195e1958dd5d1959081c1c9bdc1bdcd85b60521b606082015260800190565b6020808252602a908201527f476f7665726e6f72416c7068613a3a5f63617374566f74653a20766f74696e67604082015269081a5cc818db1bdcd95960b21b606082015260800190565b6020808252601590820152747375627472616374696f6e20756e646572666c6f7760581b604082015260600190565b60208082526036908201527f476f7665726e6f72416c7068613a3a5f5f61626469636174653a2073656e6465604082015275391036bab9ba1031329033b7bb1033bab0b93234b0b760511b606082015260800190565b8151151581526020808301511515908201526040918201516001600160601b03169181019190915260600190565b8981526001600160a01b0389166020820152610120604082018190526000906130908382018b612484565b83810360608501526130a2818b612517565b91505082810360808401526130b781896124c7565b83810360a08501526130c981896124c7565b9150508560c08401528460e08401528281036101008401526130eb8185612546565b9c9b505050505050505050505050565b9889526001600160a01b0397909716602089015260408801959095526060870193909352608086019190915260a085015260c0840152151560e083015215156101008201526101200190565b918252602082015260400190565b60405181810167ffffffffffffffff8111828210171561317457600080fd5b604052919050565b600067ffffffffffffffff821115613192578081fd5b5060209081020190565b600067ffffffffffffffff8211156131b2578081fd5b50601f01601f191660200190565b60009081526020902090565b60005b838110156131e75781810151838201526020016131cf565b838111156110605750506000910152565b8015158114611fed57600080fdfea2646970667358221220f464bd6002e014e3fcedf20b3ccce5adff99c848f1a2b2fb93676e4d545c0d0364736f6c634300060a0033",
  "immutableReferences": {},
  "source": "pragma solidity ^0.6.10;\npragma experimental ABIEncoderV2;\n\ncontract GovernorAlpha {\n    /// @notice The name of this contract\n    string public constant name = \"Mpoints Governor Alpha\";\n\n    /// @notice The number of votes in support of a proposal required in order for a quorum to be reached and for a vote to succeed\n    function quorumVotes() public pure returns (uint) { return 400000e18; } // 400,000 = 4% of Mpoint\n\n    /// @notice The number of votes required in order for a voter to become a proposer\n    function proposalThreshold() public pure returns (uint) { return 100000e18; } // 100,000 = 1% of Mpoints   // To Change\n\n    /// @notice The maximum number of actions that can be included in a proposal\n    function proposalMaxOperations() public pure returns (uint) { return 10; } // 10 actions\n\n    /// @notice The delay before voting on a proposal may take place, once proposed\n    function votingDelay() public pure returns (uint) { return 1; } // 1 block\n\n    /// @notice The duration of voting on a proposal, in blocks\n    function votingPeriod() public pure returns (uint) { return 17280; } // ~3 days in blocks (assuming 15s blocks)\n\n    /// @notice The address of the Mpoints Protocol Timelock\n    TimelockInterface public timelock;\n\n    /// @notice The address of the Mpoint governance token\n    MpointInterface public mpoint;\n\n    /// @notice The address of the Governor Guardian\n    address public guardian;\n\n    /// @notice The total number of proposals\n    uint public proposalCount;\n\n    struct Proposal {\n        /// @notice Unique id for looking up a proposal\n        uint id;\n\n        /// @notice Creator of the proposal\n        address proposer;\n\n        /// @notice The timestamp that the proposal will be available for execution, set once the vote succeeds\n        uint eta;\n\n        /// @notice the ordered list of target addresses for calls to be made\n        address[] targets;\n\n        /// @notice The ordered list of values (i.e. msg.value) to be passed to the calls to be made\n        uint[] values;\n\n        /// @notice The ordered list of function signatures to be called\n        string[] signatures;\n\n        /// @notice The ordered list of calldata to be passed to each call\n        bytes[] calldatas;\n\n        /// @notice The block at which voting begins: holders must delegate their votes prior to this block\n        uint startBlock;\n\n        /// @notice The block at which voting ends: votes must be cast prior to this block\n        uint endBlock;\n\n        /// @notice Current number of votes in favor of this proposal\n        uint forVotes;\n\n        /// @notice Current number of votes in opposition to this proposal\n        uint againstVotes;\n\n        /// @notice Flag marking whether the proposal has been canceled\n        bool canceled;\n\n        /// @notice Flag marking whether the proposal has been executed\n        bool executed;\n\n        /// @notice Receipts of ballots for the entire set of voters\n        mapping (address => Receipt) receipts;\n    }\n\n    /// @notice Ballot receipt record for a voter\n    struct Receipt {\n        /// @notice Whether or not a vote has been cast\n        bool hasVoted;\n\n        /// @notice Whether or not the voter supports the proposal\n        bool support;\n\n        /// @notice The number of votes the voter had, which were cast\n        uint96 votes;\n    }\n\n    /// @notice Possible states that a proposal may be in\n    enum ProposalState {\n        Pending,\n        Active,\n        Canceled,\n        Defeated,\n        Succeeded,\n        Queued,\n        Expired,\n        Executed\n    }\n\n    /// @notice The official record of all proposals ever proposed\n    mapping (uint => Proposal) public proposals;\n\n    /// @notice The latest proposal for each proposer\n    mapping (address => uint) public latestProposalIds;\n\n    /// @notice The EIP-712 typehash for the contract's domain\n    bytes32 public constant DOMAIN_TYPEHASH = keccak256(\"EIP712Domain(string name,uint256 chainId,address verifyingContract)\");\n\n    /// @notice The EIP-712 typehash for the ballot struct used by the contract\n    bytes32 public constant BALLOT_TYPEHASH = keccak256(\"Ballot(uint256 proposalId,bool support)\");\n\n    /// @notice An event emitted when a new proposal is created\n    event ProposalCreated(uint id, address proposer, address[] targets, uint[] values, string[] signatures, bytes[] calldatas, uint startBlock, uint endBlock, string description);\n\n    /// @notice An event emitted when a vote has been cast on a proposal\n    event VoteCast(address voter, uint proposalId, bool support, uint votes);\n\n    /// @notice An event emitted when a proposal has been canceled\n    event ProposalCanceled(uint id);\n\n    /// @notice An event emitted when a proposal has been queued in the Timelock\n    event ProposalQueued(uint id, uint eta);\n\n    /// @notice An event emitted when a proposal has been executed in the Timelock\n    event ProposalExecuted(uint id);\n\n    constructor(address timelock_, address mpoint_, address guardian_) public {\n        timelock = TimelockInterface(timelock_);\n        mpoint = MpointInterface(mpoint_);\n        guardian = guardian_;\n    }\n\n    function propose(address[] memory targets, uint[] memory values, string[] memory signatures, bytes[] memory calldatas, string memory description) public returns (uint) {\n        require(mpoint.getPriorVotes(msg.sender, sub256(block.number, 1)) > proposalThreshold(), \"GovernorAlpha::propose: proposer votes below proposal threshold\");\n        require(targets.length == values.length && targets.length == signatures.length && targets.length == calldatas.length, \"GovernorAlpha::propose: proposal function information arity mismatch\");\n        require(targets.length != 0, \"GovernorAlpha::propose: must provide actions\");\n        require(targets.length <= proposalMaxOperations(), \"GovernorAlpha::propose: too many actions\");\n\n        uint latestProposalId = latestProposalIds[msg.sender];\n        if (latestProposalId != 0) {\n            ProposalState proposersLatestProposalState = state(latestProposalId);\n            require(proposersLatestProposalState != ProposalState.Active, \"GovernorAlpha::propose: one live proposal per proposer, found an already active proposal\");\n            require(proposersLatestProposalState != ProposalState.Pending, \"GovernorAlpha::propose: one live proposal per proposer, found an already pending proposal\");\n        }\n\n        uint startBlock = add256(block.number, votingDelay());\n        uint endBlock = add256(startBlock, votingPeriod());\n\n        proposalCount++;\n        Proposal memory newProposal = Proposal({\n            id: proposalCount,\n            proposer: msg.sender,\n            eta: 0,\n            targets: targets,\n            values: values,\n            signatures: signatures,\n            calldatas: calldatas,\n            startBlock: startBlock,\n            endBlock: endBlock,\n            forVotes: 0,\n            againstVotes: 0,\n            canceled: false,\n            executed: false\n            });\n\n        proposals[newProposal.id] = newProposal;\n        latestProposalIds[newProposal.proposer] = newProposal.id;\n\n        emit ProposalCreated(newProposal.id, msg.sender, targets, values, signatures, calldatas, startBlock, endBlock, description);\n        return newProposal.id;\n    }\n\n    function queue(uint proposalId) public {\n        require(state(proposalId) == ProposalState.Succeeded, \"GovernorAlpha::queue: proposal can only be queued if it is succeeded\");\n        Proposal storage proposal = proposals[proposalId];\n        uint eta = add256(block.timestamp, timelock.delay());\n        for (uint i = 0; i < proposal.targets.length; i++) {\n            _queueOrRevert(proposal.targets[i], proposal.values[i], proposal.signatures[i], proposal.calldatas[i], eta);\n        }\n        proposal.eta = eta;\n        emit ProposalQueued(proposalId, eta);\n    }\n\n    function _queueOrRevert(address target, uint value, string memory signature, bytes memory data, uint eta) internal {\n        require(!timelock.queuedTransactions(keccak256(abi.encode(target, value, signature, data, eta))), \"GovernorAlpha::_queueOrRevert: proposal action already queued at eta\");\n        timelock.queueTransaction(target, value, signature, data, eta);\n    }\n\n    function execute(uint proposalId) public payable {\n        require(state(proposalId) == ProposalState.Queued, \"GovernorAlpha::execute: proposal can only be executed if it is queued\");\n        Proposal storage proposal = proposals[proposalId];\n        proposal.executed = true;\n        for (uint i = 0; i < proposal.targets.length; i++) {\n            timelock.executeTransaction.value(proposal.values[i])(proposal.targets[i], proposal.values[i], proposal.signatures[i], proposal.calldatas[i], proposal.eta);\n        }\n        emit ProposalExecuted(proposalId);\n    }\n\n    function cancel(uint proposalId) public {\n        ProposalState state = state(proposalId);\n        require(state != ProposalState.Executed, \"GovernorAlpha::cancel: cannot cancel executed proposal\");\n\n        Proposal storage proposal = proposals[proposalId];\n        require(msg.sender == guardian || mpoint.getPriorVotes(proposal.proposer, sub256(block.number, 1)) < proposalThreshold(), \"GovernorAlpha::cancel: proposer above threshold\");\n\n        proposal.canceled = true;\n        for (uint i = 0; i < proposal.targets.length; i++) {\n            timelock.cancelTransaction(proposal.targets[i], proposal.values[i], proposal.signatures[i], proposal.calldatas[i], proposal.eta);\n        }\n\n        emit ProposalCanceled(proposalId);\n    }\n\n    function getActions(uint proposalId) public view returns (address[] memory targets, uint[] memory values, string[] memory signatures, bytes[] memory calldatas) {\n        Proposal storage p = proposals[proposalId];\n        return (p.targets, p.values, p.signatures, p.calldatas);\n    }\n\n    function getReceipt(uint proposalId, address voter) public view returns (Receipt memory) {\n        return proposals[proposalId].receipts[voter];\n    }\n\n    function state(uint proposalId) public view returns (ProposalState) {\n        require(proposalCount >= proposalId && proposalId > 0, \"GovernorAlpha::state: invalid proposal id\");\n        Proposal storage proposal = proposals[proposalId];\n        if (proposal.canceled) {\n            return ProposalState.Canceled;\n        } else if (block.number <= proposal.startBlock) {\n            return ProposalState.Pending;\n        } else if (block.number <= proposal.endBlock) {\n            return ProposalState.Active;\n        } else if (proposal.forVotes <= proposal.againstVotes || proposal.forVotes < quorumVotes()) {\n            return ProposalState.Defeated;\n        } else if (proposal.eta == 0) {\n            return ProposalState.Succeeded;\n        } else if (proposal.executed) {\n            return ProposalState.Executed;\n        } else if (block.timestamp >= add256(proposal.eta, timelock.GRACE_PERIOD())) {\n            return ProposalState.Expired;\n        } else {\n            return ProposalState.Queued;\n        }\n    }\n\n    function castVote(uint proposalId, bool support) public {\n        return _castVote(msg.sender, proposalId, support);\n    }\n\n    function castVoteBySig(uint proposalId, bool support, uint8 v, bytes32 r, bytes32 s) public {\n        bytes32 domainSeparator = keccak256(abi.encode(DOMAIN_TYPEHASH, keccak256(bytes(name)), getChainId(), address(this)));\n        bytes32 structHash = keccak256(abi.encode(BALLOT_TYPEHASH, proposalId, support));\n        bytes32 digest = keccak256(abi.encodePacked(\"\\x19\\x01\", domainSeparator, structHash));\n        address signatory = ecrecover(digest, v, r, s);\n        require(signatory != address(0), \"GovernorAlpha::castVoteBySig: invalid signature\");\n        return _castVote(signatory, proposalId, support);\n    }\n\n    function _castVote(address voter, uint proposalId, bool support) internal {\n        require(state(proposalId) == ProposalState.Active, \"GovernorAlpha::_castVote: voting is closed\");\n        Proposal storage proposal = proposals[proposalId];\n        Receipt storage receipt = proposal.receipts[voter];\n        require(receipt.hasVoted == false, \"GovernorAlpha::_castVote: voter already voted\");\n        uint96 votes = mpoint.getPriorVotes(voter, proposal.startBlock);\n\n        if (support) {\n            proposal.forVotes = add256(proposal.forVotes, votes);\n        } else {\n            proposal.againstVotes = add256(proposal.againstVotes, votes);\n        }\n\n        receipt.hasVoted = true;\n        receipt.support = support;\n        receipt.votes = votes;\n\n        emit VoteCast(voter, proposalId, support, votes);\n    }\n\n    function __acceptAdmin() public {\n        require(msg.sender == guardian, \"GovernorAlpha::__acceptAdmin: sender must be gov guardian\");\n        timelock.acceptAdmin();\n    }\n\n    function __abdicate() public {\n        require(msg.sender == guardian, \"GovernorAlpha::__abdicate: sender must be gov guardian\");\n        guardian = address(0);\n    }\n\n    function __queueSetTimelockPendingAdmin(address newPendingAdmin, uint eta) public {\n        require(msg.sender == guardian, \"GovernorAlpha::__queueSetTimelockPendingAdmin: sender must be gov guardian\");\n        timelock.queueTransaction(address(timelock), 0, \"setPendingAdmin(address)\", abi.encode(newPendingAdmin), eta);\n    }\n\n    function __executeSetTimelockPendingAdmin(address newPendingAdmin, uint eta) public {\n        require(msg.sender == guardian, \"GovernorAlpha::__executeSetTimelockPendingAdmin: sender must be gov guardian\");\n        timelock.executeTransaction(address(timelock), 0, \"setPendingAdmin(address)\", abi.encode(newPendingAdmin), eta);\n    }\n\n    function add256(uint256 a, uint256 b) internal pure returns (uint) {\n        uint c = a + b;\n        require(c >= a, \"addition overflow\");\n        return c;\n    }\n\n    function sub256(uint256 a, uint256 b) internal pure returns (uint) {\n        require(b <= a, \"subtraction underflow\");\n        return a - b;\n    }\n\n    function getChainId() internal pure returns (uint) {\n        uint chainId;\n        assembly { chainId := chainid() }\n        return chainId;\n    }\n}\n\ninterface TimelockInterface {\n    function delay() external view returns (uint);\n    function GRACE_PERIOD() external view returns (uint);\n    function acceptAdmin() external;\n    function queuedTransactions(bytes32 hash) external view returns (bool);\n    function queueTransaction(address target, uint value, string calldata signature, bytes calldata data, uint eta) external returns (bytes32);\n    function cancelTransaction(address target, uint value, string calldata signature, bytes calldata data, uint eta) external;\n    function executeTransaction(address target, uint value, string calldata signature, bytes calldata data, uint eta) external payable returns (bytes memory);\n}\n\ninterface MpointInterface {\n    function getPriorVotes(address account, uint blockNumber) external view returns (uint96);\n}\n",
  "sourcePath": "/Volumes/Projects/Projects/Minetwork/dao-contract/contracts/GovernorAlpha.sol",
  "compiler": {
    "name": "solc",
    "version": "0.6.10+commit.00c0fcaf.Emscripten.clang"
  },
  "schemaVersion": "3.2.5",
  "updatedAt": "2020-10-06T23:05:38.195Z",
  "devdoc": {
    "methods": {}
  },
  "userdoc": {
    "methods": {
      "BALLOT_TYPEHASH()": {
        "notice": "The EIP-712 typehash for the ballot struct used by the contract"
      },
      "DOMAIN_TYPEHASH()": {
        "notice": "The EIP-712 typehash for the contract's domain"
      },
      "guardian()": {
        "notice": "The address of the Governor Guardian"
      },
      "latestProposalIds(address)": {
        "notice": "The latest proposal for each proposer"
      },
      "mpoint()": {
        "notice": "The address of the Mpoint governance token"
      },
      "name()": {
        "notice": "The name of this contract"
      },
      "proposalCount()": {
        "notice": "The total number of proposals"
      },
      "proposalMaxOperations()": {
        "notice": "The maximum number of actions that can be included in a proposal"
      },
      "proposalThreshold()": {
        "notice": "The number of votes required in order for a voter to become a proposer"
      },
      "proposals(uint256)": {
        "notice": "The official record of all proposals ever proposed"
      },
      "quorumVotes()": {
        "notice": "The number of votes in support of a proposal required in order for a quorum to be reached and for a vote to succeed"
      },
      "timelock()": {
        "notice": "The address of the Mpoints Protocol Timelock"
      },
      "votingDelay()": {
        "notice": "The delay before voting on a proposal may take place, once proposed"
      },
      "votingPeriod()": {
        "notice": "The duration of voting on a proposal, in blocks"
      }
    }
  }
}